:100000000C94B4010C94D1010C94D1010C94D10145
:100010000C94D1010C94D1010C94D1010C94D10118
:100020000C94D1010C94D1010C94D1010C94D10108
:100030000C94D1010C94D1010C94D1010C94D101F8
:100040000C94D1010C94D1010C94D1010C94D101E8
:100050000C94D1010C94D1010C94D1010C94D101D8
:100060000C94D1010C94D1010C94D1010C94D101C8
:10007000000000000000000000065F5F06000000B6
:100080000007070007070000147F7F147F7F14001C
:10009000242E6B6B3A120000466630180C66620024
:1000A000307A4F5D377A48000407030000000000F3
:1000B000001C3E63410000000041633E1C00000044
:1000C000082A3E1C1C3E2A0808083E3E080800007C
:1000D00000A0E06000000000080808080808000010
:1000E00000006060000000006030180C0603010092
:1000F0003E7F594D7F3E000042427F7F40400000DE
:10010000627359496F660000226349497F360000D7
:10011000181C16137F7F1000276745457D390000A6
:100120003C7E4B4979300000036371190F070000D2
:10013000367F49497F360000064F49693F1E00005F
:1001400000006C6C0000000000A0EC6C00000000DF
:10015000081C366341000000141414141414000029
:10016000004163361C080000020351590F060000CD
:100170003E7F415D5D1F1E007C7E13137E7C000070
:10018000417F7F49497F36001C3E63414163220025
:10019000417F7F41637F1C00417F7F495D41630058
:1001A000417F7F491D0103001C3E63415173720072
:1001B0007F7F08087F7F000000417F7F41000000B3
:1001C000307040417F3F0100417F7F081C77630012
:1001D000417F7F41406070007F7F060C067F7F007B
:1001E0007F7F060C187F7F001C3E6341633E1C002E
:1001F000417F7F49090F06001E3F21717F5E00008D
:10020000417F7F19396F460026674D597B320000C8
:1002100003417F7F410300007F7F40407F7F0000DC
:100220001F3F60603F1F00007F7F3018307F7F00DE
:1002300063771C081C776300074F78784F0700002E
:100240006773594D47637100007F7F414100000093
:100250000103060C183060000041417F7F00000060
:10026000080C0603060C0800808080808080808057
:100270000000030704000000207454543C78400040
:10028000413F7F44447C3800387C44446C28000063
:10029000307848493F7F4000387C54545C18000057
:1002A000487E7F490302000098BCA4A4F87C0400A7
:1002B000417F7F08047C780000447D7D4000000081
:1002C00040C484FD7D000000417F7F10386C4400F5
:1002D00000417F7F400000007C7C0C180C7C780083
:1002E0007C7C04047C780000387C44447C3800002A
:1002F00084FCF8A4243C1800183C24A4F8FC8400D6
:10030000447C78441C180000485C54547424000059
:1003100000043E7F442400003C7C40403C7C400084
:100320001C3C60603C1C00003C7C6030607C3C00FD
:10033000446C3810386C44009CBCA0A0FC7C0000CD
:100340004C64745C4C64000008083E774141000036
:1003500000000077770000004141773E0808000068
:10036000020301030203010011241FBECFEFD4E0FA
:10037000DEBFCDBF11E0A0E0B1E0E6EFFDE002C0DE
:1003800005900D92A838B107D9F721E0A8E8B1E0AF
:1003900001C01D92A639B207E1F70E9458020C94E1
:1003A000F9060C940000BF92CF92DF92EF92FF9279
:1003B0000F931F93CF93DF93CDB7DEB72B970FB675
:1003C000F894DEBF0FBECDBFB82EC982DA82EB82B1
:1003D000FC820D831E832F83388749875A876B875A
:1003E0006E2D85E30E941003698182E30E94100351
:1003F00060E081E30E9410038B2D90E00E94F604E0
:1004000000E010E00DC0E4E0F0E0EC0FFD1FE00FB5
:10041000F11F608186E3800F0E9410030F5F1F4F62
:100420008E2D90E00817190774F380E090E00E9489
:100430003E032B960FB6F894DEBF0FBECDBFDF9103
:10044000CF911F910F91FF90EF90DF90CF90BF90D1
:10045000089591E0823D08F490E0892F089591E09D
:10046000813508F090E0892F0895E0E0F4E184E020
:10047000808382E48A95F1F700C060817091011455
:100480009091021480E0089580E885BF80E280BFEB
:1004900008958EB588608EBD1BBC1ABC8EB5816078
:1004A0008EBD8FB580648FBD81B3806281BB08959E
:1004B000CF93DF93CDB7DEB72B970FB6F894DEBF9F
:1004C0000FBECDBF0E94FC030E9404040E9449029B
:1004D0008FE190E00E9405050E9444020E940503FE
:1004E00080E80E945D0380EE90E09A83898384E037
:1004F0008B830E9435026C830E9435027D830E94AB
:1005000035029E831F8263E08AE20E94100360EB43
:1005100089E20E94100365E088E20E94100380E0F7
:100520000E945D0380918A0190918B010E94470493
:1005300080918801909189010097E9F50E94350228
:10054000872F0E942902882371F080918A0190915F
:100550008B01181619063CF4019790938B01809338
:100560008A010E9447040E943502872F0E942F02B1
:10057000882371F080918A0190918B0182309105DE
:100580003CF4019690938B0180938A010E9447046A
:100590000E9435029B3050F580918A0190918B0129
:1005A000892B21F581E090E0909389018093880167
:1005B0000E94D8041BC00197C9F40E9435026C83C5
:1005C0007D839E8381E08F83C980DA80EB80F62E65
:1005D000072F192F21E0388549855A856B8581E3DE
:1005E0000E94D3018AE091E00E94850587E893E1AB
:1005F0000197F1F700C000009BCF0E94EB0480EC54
:100600000E94F6040E94E70408950E94EF040E94ED
:10061000FD028FEF9FE20197F1F700C000000895FF
:10062000CF93DF93D82FC62F0E94EB0482E00E9465
:10063000F6048D2F0E94F6048C2F0E94F6040E946F
:10064000E704DF91CF9108951F93CF93DF93182F85
:10065000D62FC42F0E94EB0485E00E94F604812F60
:100660000E94F6048D2F0E94F6048C2F0E94F6043F
:100670000E94E704DF91CF911F910895CF93DF93FC
:10068000EC010E94EB04CE0163E070E00E941205D1
:10069000009739F08130910531F0029731F081E80F
:1006A00005C081E803C082E801C084E80E94F60426
:1006B0000E94E704DF91CF910895482F60EE8FE00C
:1006C0000E9424030895E0910801F09109018083BC
:1006D0000895E0910601F091070180830895805507
:1006E0000E9463030895CF93DF93EC018F7090789D
:1006F000992324F40197806F9F6F01960E946303F2
:10070000CE01DD230CF40F969595879595958795E9
:100710009595879595958795805F0E946303DF91F6
:10072000CF910895CF93DF93EB010E946F03CE0129
:100730000E947303DF91CF9108951F93CF93DF93AE
:1007400010EE180FC0E0D0E010C0E12FF0E0EE0F87
:10075000FF1FEE0FFF1FEE0FFF1FEC0FFD1FE059F5
:10076000FF4F84910E9469032196C830D1056CF334
:10077000DF91CF911F9108950F931F93CF93DF9334
:100780008C01C0E0D0E007C0F801EC0FFD1F8081B4
:100790000E949D032196F80101900020E9F731970E
:1007A000E01BF10BCE17DF0778F3DF91CF911F919C
:1007B0000F9108950F931F93CF93DF9300E010E004
:1007C00013C0C8010E946F0380E090E00E94730391
:1007D000C0E0D0E004C080E00E9469032196C038E8
:1007E000D105CCF30F5F1F4F0830110554F3DF9193
:1007F000CF911F910F91089580E885BF80B780BF8A
:1008000080B7806280BF08958EEA0E94630381EA08
:100810000E9463038AED0E94630382E10E946303E6
:1008200088EC0E94630388EA0E9463038FE30E94BE
:10083000630385ED0E94630380E80E94630381E8FF
:100840000E94630380E50E94630389ED0E946303B5
:1008500081E20E94630380E20E94630382E00E94BF
:1008600063038BED0E94630380E30E9463038DEAC0
:100870000E94630380E00E94630384EA0E94630392
:1008800086EA0E9463038FEA0E9463030895CF9370
:10089000DF93EC01892B61F50E94DA0381E090E09F
:1008A0000E946F0380E090E00E94730389E191E071
:1008B0000E94BC0360E070E082E090E00E9492033E
:1008C0008EE191E00E94BC0360E070E083E090E084
:1008D0000E9492038CE291E00E94BC0360E070E011
:1008E00084E090E00E94920388E391E00E94BC03C0
:1008F000C130D10561F50E94DA0381E090E00E94E9
:100900006F0380E090E00E94730389E191E00E9410
:10091000BC0360E070E082E090E00E94920384E417
:1009200091E00E94BC0360E070E083E090E00E94F0
:10093000920381E591E00E94BC0360E070E084E0F6
:1009400090E00E94920388E391E00E94BC0322970A
:1009500061F50E94DA0381E090E00E946F0380E07D
:1009600090E00E94730389E191E00E94BC0360E083
:1009700070E082E090E00E94920384E491E00E94A3
:10098000BC0360E070E083E090E00E9492038FE59A
:1009900091E00E94BC0360E070E084E090E00E947F
:1009A00092038CE691E00E94BC03DF91CF91089501
:1009B0000E94DA0381E090E00E946F0380E090E003
:1009C0000E9473038AE791E00E94BC03089588B3F4
:1009D000806188BB089588B38F7E88BB089580EBC3
:1009E00087BB81E58DB90E94E70408958FB9779B95
:1009F000FECF08955D9BFECF8CB980E090E0089516
:100A00005F9BFECF8CB190E0089590BD89B988E1DD
:100A10008AB98EE880BD60E075E08AEF94E00E94BC
:100A20003A05089597FB072E16F4009407D077FD3A
:100A300009D00E94260507FC05D03EF490958195CB
:100A40009F4F0895709561957F4F0895AA1BBB1B1A
:100A500051E107C0AA1FBB1FA617B70710F0A61BBE
:100A6000B70B881F991F5A95A9F780959095BC01DF
:100A7000CD0108950F931F93CF93DF93009731F427
:100A80006115710519F480E090E03AC08B01EC012A
:100A90006EE070E081E090E00E94B505FC01892BDA
:100AA00091F380E883830115110571F013870287A4
:100AB00081E8838380918C0190918D01892B21F4B1
:100AC000F0938D01E0938C012097C9F0D187C08706
:100AD00083818260838380918E0190918F01892B25
:100AE00071F4F0938F01E0938E01809190019091C9
:100AF0009101892B21F4F0939101E0939001CF01B2
:100B0000DF91CF911F910F9108950F931F93CF9372
:100B1000DF93E0918E01F0918F01238121FF1BC0B3
:100B20008C01D0E0C0E0F80181918F0160918E01CD
:100B300070918F01DB011896ED91FC911997882334
:100B400031F00995892B79F3DFEFCFEFECCF8AE015
:100B50000995892B19F08FEF9FEF02C08D2F9C2FE5
:100B6000DF91CF911F910F9108950F931F93CF9312
:100B7000DF93869F8001879F100D969F100D112493
:100B8000C8010E94D105EC01009729F0A80160E09E
:100B900070E00E94F206CE01DF91CF911F910F917C
:100BA00008950F931F93CF93DF938230910510F434
:100BB00082E090E0E0919401F091950120E030E036
:100BC000A0E0B0E0309719F140815181028113819A
:100BD00048175907C8F08417950769F4109731F042
:100BE00012960C93129713961C9327C000939401AE
:100BF0001093950122C02115310519F042175307B2
:100C000018F49A01BD01EF01DF01F801DBCF2115D6
:100C10003105F9F0281B390B2430310580F48A8125
:100C20009B816115710521F0FB019383828304C0D0
:100C30009093950180939401FE01329644C0FE0189
:100C4000E20FF31F81939193225031093983288356
:100C50003AC02091920130919301232B41F42091CD
:100C6000020130910301309393012093920120916E
:100C70000001309101012115310541F42DB73EB736
:100C80004091040150910501241B350BE091920124
:100C9000F0919301E217F307A0F42E1B3F0B2817E6
:100CA000390778F0AC014E5F5F4F2417350748F0E5
:100CB0004E0F5F1F50939301409392018193919344
:100CC00002C0E0E0F0E0CF01DF91CF911F910F91E2
:100CD0000895CF93DF93009709F481C0FC01329708
:100CE00013821282A0919401B0919501109781F422
:100CF00020813181820F931F2091920130919301C5
:100D00002817390751F5F0939301E093920167C0DA
:100D1000ED0120E030E0CE17DF0740F44A815B812F
:100D20009E0141155105F1F0EA01F5CFD383C2834D
:100D300040815181840F951FC817D90759F48881C4
:100D40009981840F951F0296918380838A819B816C
:100D5000938382832115310529F4F0939501E09363
:100D600094013DC0E901FB83EA8349915991C40F85
:100D7000D51FEC17FD0761F480819181840F951FC9
:100D80000296E90199838883828193819B838A8378
:100D9000E0E0F0E012968D919C911397009719F086
:100DA000FD01DC01F7CF8D919C9111979D012E5F84
:100DB0003F4F820F931F209192013091930128178A
:100DC000390769F4309729F4109295011092940133
:100DD00002C013821282B0939301A0939201DF911B
:100DE000CF910895DC0101C06D9341505040E0F770
:060DF0000895F894FFCF06
:100DF6000000960120000012001073656E64696E93
:100E0600672063616E3A200D004D454E5500205314
:100E1600746172742067616D65202A0020486967D5
:100E26006873636F726573002053657474696E67C7
:100E3600732020002053746172742067616D6520F1
:100E460000204869676873636F726573202A002003
:100E56004869676873636F72657320002053657411
:100E660074696E67732020202A00504C4159494E00
:080E7600472050494E470000DF
:00000001FF
